:0400000083EF7CF01E
:10F8DE00800F810F820F830F840F890F8A0F8B0F7A
:10F8EE008C0F8D0F920F930F940F950F960F013A69
:10F8FE00C3322A221A120A02DE0EF66EF80EF76EC6
:10F90E00000EF86E00EE01F010EE28F00900F5CFB3
:10F91E00EEFFE550E150FAE1356A346A000EF86EFA
:10F92E000001CAEF7EF0010E336E29502A10D8B4B2
:10F93E00A3EF7CF0A5EF7CF0CEEF7CF02B502C10DB
:10F94E00D8B4ACEF7CF0AEEF7CF0CEEF7CF029C0FB
:10F95E00D9FF2AC0DAFFDF50070B2D6E050E2D6082
:10F96E00BBEF7CF0BDEF7CF0CEEF7CF029C0D9FF71
:10F97E002AC0DAFFDF30E832E832070B2D6E070EB1
:10F98E002D64CCEF7CF0CEEF7CF0D2EF7CF0000E4D
:10F99E00336E05EF7DF029C0D9FF2AC0DAFFDF50A4
:10F9AE00070B2D6E2D50020D150EF324D96E000E81
:10F9BE00F420DA6EDECF2EF0DDCF2FF02EC0D9FF81
:10F9CE002FC0DAFFDF50306E29C0D9FF2AC0DAFF10
:10F9DE00DF30E832E832070B316E010E326E312A1B
:10F9EE00FBEF7CF0D8903236312EF9EF7CF03250AE
:10F9FE0030142BC0D9FF2CC0DAFFDF6E335012004B
:10FA0E00010E336E29502A10D8B410EF7DF012EF8C
:10FA1E007DF03BEF7DF02B502C10D8B419EF7DF01C
:10FA2E001BEF7DF03BEF7DF029C0D9FF2AC0DAFF36
:10FA3E00DF50070B2D6E050E2D6028EF7DF02AEF9F
:10FA4E007DF03BEF7DF029C0D9FF2AC0DAFFDF3011
:10FA5E00E832E832070B2D6E070E2D6439EF7DF07C
:10FA6E003BEF7DF03FEF7DF0000E336E72EF7DF0D9
:10FA7E0029C0D9FF2AC0DAFFDF50070B2D6E2D509B
:10FA8E00020D010EF324D96E000EF420DA6EDECFD5
:10FA9E002EF0DDCF2FF02EC0D9FF2FC0DAFFDF50B2
:10FAAE00306E29C0D9FF2AC0DAFFDF30E832E832E3
:10FABE00070B316E010E326E312A68EF7DF0D89051
:10FACE003236312E66EF7DF0325030142BC0D9FF16
:10FADE002CC0DAFFDF6E33501200010E326E295049
:10FAEE002A10D8B47DEF7DF07FEF7DF09FEF7DF093
:10FAFE0029C0D9FF2AC0DAFFDF50070B2C6E050E86
:10FB0E002C608CEF7DF08EEF7DF09FEF7DF029C0A5
:10FB1E00D9FF2AC0DAFFDF30E832E832070B2C6E4D
:10FB2E00070E2C649DEF7DF09FEF7DF002EF7EF0CF
:10FB3E00000E326E17EF7EF029C0D9FF2AC0DAFF11
:10FB4E00DF30E832E832070B2C6E010E2D6E2C2AB8
:10FB5E00B3EF7DF0D8902D362C2EB1EF7DF02D50D9
:10FB6E00FF0A2E6E29C0D9FF2AC0DAFFDF50070B1D
:10FB7E002F6E2F50020D0B0EF324D96E000EF420B3
:10FB8E00DA6EDECF30F0DDCF31F030C0D9FF31C0CC
:10FB9E00DAFF2E50DF1617EF7EF029C0D9FF2AC0EC
:10FBAE00DAFFDF30E832E832070B2C6E010E2D6ED5
:10FBBE002C2AE4EF7DF0D8902D362C2EE2EF7DF03E
:10FBCE0029C0D9FF2AC0DAFFDF50070B2E6E2E5048
:10FBDE00020D0B0EF324D96E000EF420DA6EDECF7A
:10FBEE002FF0DDCF30F02FC0D9FF30C0DAFF2D500F
:10FBFE00DF1217EF7EF02B502C6E2D6A2D50000A5F
:10FC0E00D8B40CEF7EF09FEF7DF02C50000AD8B4E4
:10FC1E00A3EF7DF0010AD8B4D4EF7DF09FEF7DF015
:10FC2E0032501200010E316E29502A10D8B422EF34
:10FC3E007EF024EF7EF044EF7EF029C0D9FF2AC07B
:10FC4E00DAFFDF50070B2B6E050E2B6031EF7EF0C7
:10FC5E0033EF7EF044EF7EF029C0D9FF2AC0DAFFE1
:10FC6E00DF30E832E832070B2B6E070E2B6442EFC3
:10FC7E007EF044EF7EF0A7EF7EF0000E316EC8EFFF
:10FC8E007EF029C0D9FF2AC0DAFFDF30E832E83231
:10FC9E00070B2B6E010E2C6E2B2A58EF7EF0D89090
:10FCAE002C362B2E56EF7EF02C50FF0A2D6E29C0CF
:10FCBE00D9FF2AC0DAFFDF50070B2E6E2E50020D31
:10FCCE00150EF324D96E000EF420DA6EDECF2FF06F
:10FCDE00DDCF30F02FC0D9FF30C0DAFF2D50DF1648
:10FCEE00C8EF7EF029C0D9FF2AC0DAFFDF30E83234
:10FCFE00E832070B2B6E010E2C6E2B2A89EF7EF04D
:10FD0E00D8902C362B2E87EF7EF029C0D9FF2AC033
:10FD1E00DAFFDF50070B2D6E2D50020D150EF3245A
:10FD2E00D96E000EF420DA6EDECF2EF0DDCF2FF07E
:10FD3E002EC0D9FF2FC0DAFF2C50DF12C8EF7EF095
:10FD4E0029C0D9FF2AC0DAFFDFBCB0EF7EF0B3EFD7
:10FD5E007EF0010EB4EF7EF0000E2B6E2C6A2C504E
:10FD6E00000AD8B4BDEF7EF044EF7EF02B50000AAF
:10FD7E00D8B448EF7EF0010AD8B479EF7EF044EFA4
:10FD8E007EF031501200210E296E000E2A6E19ECF3
:10FD9E007EF01F6E280E296E000E2A6E19EC7EF074
:10FDAE001F6E270E296E000E2A6E19EC7EF01F6E46
:10FDBE00260E296E000E2A6E19EC7EF01F6E250E91
:10FDCE00296E000E2A6E19EC7EF01F6E240E296E1F
:10FDDE00000E2A6E19EC7EF01F6E230E296E000E99
:10FDEE002A6E19EC7EF01F6E220E296E000E2A6E00
:10FDFE0019EC7EF01F6E280E296E000E2A6E350E3F
:10FE0E002B6E000E2C6E9AEC7CF01F6E210E296E5E
:10FE1E00000E2A6E350E2B6E000E2C6E9AEC7CF0B8
:10FE2E001F6E210E296E000E2A6E340E2B6E000EE2
:10FE3E002C6E07EC7DF01F6E200E296E000E2A6EC2
:10FE4E0019EC7EF01F6E3404D8A430EF7FF032EF41
:10FE5E007FF03DEF7FF0200E296E000E2A6E010E10
:10FE6E002B6E74EC7DF01F6E46EF7FF0200E296E28
:10FE7E00000E2A6E000E2B6E74EC7DF01F6E280E97
:10FE8E00296E000E2A6E010E2B6E74EC7DF01F6E25
:10FE9E00C80E00D0E82EFDD7270E296E000E2A6E52
:10FEAE00010E2B6E74EC7DF01F6EC80E00D0E82E86
:10FEBE00FDD7260E296E000E2A6E010E2B6E74ECE7
:10FECE007DF01F6EC80E00D0E82EFDD7250E296ED0
:10FEDE00000E2A6E010E2B6E74EC7DF01F6EC80E96
:10FEEE0000D0E82EFDD7240E296E000E2A6E010ECC
:10FEFE002B6E74EC7DF01F6EC80E00D0E82EFDD771
:10FF0E00230E296E000E2A6E010E2B6E74EC7DF000
:10FF1E001F6EC80E00D0E82EFDD7220E296E000EE1
:10FF2E002A6E010E2B6E74EC7DF01F6EC80E00D083
:10FF3E00E82EFDD7280E296E000E2A6E000E2B6EAF
:10FF4E0074EC7DF01F6EC80E00D0E82EFDD7270E84
:10FF5E00296E000E2A6E000E2B6E74EC7DF01F6E55
:10FF6E00C80E00D0E82EFDD7260E296E000E2A6E82
:10FF7E00000E2B6E74EC7DF01F6EC80E00D0E82EB6
:10FF8E00FDD7250E296E000E2A6E000E2B6E74EC18
:10FF9E007DF01F6EC80E00D0E82EFDD7240E296E00
:10FFAE00000E2A6E000E2B6E74EC7DF01F6EC80EC6
:10FFBE0000D0E82EFDD7230E296E000E2A6E000EFD
:10FFCE002B6E74EC7DF01F6EC80E00D0E82EFDD7A0
:10FFDE00220E296E000E2A6E000E2B6E74EC7DF032
:10FFEE001F6EC80E00D0E82EFDD718EF7FF000EF81
:02FFFE0000F011
:020000040020DA
:08000000FFFFFFFFFFFFFFFF00
:020000040030CA
:0E000000FF02091EFF8381FF0FC00FE00F40BB
:00000001FF
