:0400000007EF00F016
:0A0008006E820BED08F096EF0BF08E
:10100000003738392F3435362A3132332D23303DED
:051010002B2569000022
:101016000600FACF65F0FBCF66F0D9CF67F0DACFDE
:1010260068F0F3CF69F0F4CF6AF0F2A81DEF08F08C
:101036001FEF08F028EF08F0F2A224EF08F026EFE1
:1010460008F028EF08F0D8EC0CF0F0A62DEF08F029
:101056002FEF08F038EF08F0F0A034EF08F036EF85
:1010660008F038EF08F0D6EC0CF0F0A83DEF08F0E9
:101076003FEF08F048EF08F0F0A244EF08F046EF23
:1010860008F048EF08F0D4EC0CF0F2A64DEF08F0AB
:101096004FEF08F05FEF08F0F2A054EF08F056EFBC
:1010A60008F05FEF08F081A85BEF08F05DEF08F04D
:1010B6005FEF08F0D2EC0CF0F2A664EF08F066EFF2
:1010C60008F076EF08F0F2A06BEF08F06DEF08F08D
:1010D60076EF08F081AA72EF08F074EF08F076EF69
:1010E60008F0D0EC0CF0F2A67BEF08F07DEF08F0EC
:1010F6008DEF08F0F2A082EF08F084EF08F08DEF94
:1011060008F081AC89EF08F08BEF08F08DEF08F05E
:10111600CEEC0CF0F2A692EF08F094EF08F0A4EFF4
:1011260008F0F2A099EF08F09BEF08F0A4EF08F0A2
:1011360081AEA0EF08F0A2EF08F0A4EF08F0CCEC27
:101146000CF09DACA9EF08F0ABEF08F0B4EF08F097
:101156009EACB0EF08F0B2EF08F0B4EF08F0DAECAE
:101166000CF0F2AAB9EF08F0BBEF08F0C4EF08F0F4
:10117600F2A4C0EF08F0C2EF08F0C4EF08F01AECD2
:101186000CF09DA0C9EF08F0CBEF08F0D4EF08F003
:101196009EA0D0EF08F0D2EF08F0D4EF08F0FFECF5
:1011A6000BF09DA2D9EF08F0DBEF08F0E4EF08F0B2
:1011B6009EA2E0EF08F0E2EF08F0E4EF08F04EEC54
:1011C6000CF0A0A2E9EF08F0EBEF08F0F4EF08F05E
:1011D600A1A2F0EF08F0F2EF08F0F4EF08F0E4EC6B
:1011E6000BF06AC0F4FF69C0F3FF68C0DAFF67C09E
:1011F600D9FF66C0FBFF65C0FAFF6E921100010EB3
:101206006D6E6B506C10D8B40BEF09F00DEF09F052
:101216002EEF09F06BC0D9FF6CC0DAFFDF50070B69
:101226000001976F050E97611BEF09F01DEF09F09E
:101236002EEF09F06BC0D9FF6CC0DAFFDF30E83261
:10124600E832070B976F070E97652CEF09F02EEF24
:1012560009F093EF09F0000E6D6EB4EF09F06BC064
:10126600D9FF6CC0DAFFDF30E832E832070B976F40
:10127600010E986F972B42EF09F0D8909837972F69
:1012860040EF09F000019851FF0A996F6BC0D9FF32
:101296006CC0DAFFDF50070B9A6F9A51020D3B0EB6
:1012A600F324D96E000EF420DA6EDECF9BF0DDCF8C
:1012B6009CF09BC0D9FF9CC0DAFF9951DF16B4EFB2
:1012C60009F06BC0D9FF6CC0DAFFDF30E832E832D4
:1012D600070B976F010E986F972B74EF09F0D89054
:1012E6009837972F72EF09F06BC0D9FF6CC0DAFF01
:1012F600DF50070B0001996F9951020D3B0EF32445
:10130600D96E000EF420DA6EDECF9AF0DDCF9BF0B8
:101316009AC0D9FF9BC0DAFF9851DF12B4EF09F0EB
:101326006BC0D9FF6CC0DAFFDFBC9CEF09F09FEF02
:1013360009F0010EA0EF09F0000E976F986B985117
:10134600000AD8B4A9EF09F02EEF09F09751000A68
:10135600D8B432EF09F0010AD8B464EF09F02EEFE1
:1013660009F06D501200010E00019D6F6B506C105C
:10137600D8B4C0EF09F0C2EF09F0E2EF09F06BC094
:10138600D9FF6CC0DAFFDF50070B976F050E976128
:10139600CFEF09F0D1EF09F0E2EF09F06BC0D9FF0A
:1013A6006CC0DAFFDF30E832E832070B976F070EC2
:1013B6009765E0EF09F0E2EF09F047EF0AF0000E5B
:1013C6009D6F5CEF0AF06BC0D9FF6CC0DAFFDF30AF
:1013D600E832E832070B976F010E986F972BF6EFFE
:1013E60009F0D8909837972FF4EF09F0000198513B
:1013F600FF0A996F6BC0D9FF6CC0DAFFDF50070B8D
:101406009A6F9A51020D310EF324D96E000EF42014
:10141600DA6EDECF9BF0DDCF9CF09BC0D9FF9CC07F
:10142600DAFF9951DF165CEF0AF06BC0D9FF6CC08A
:10143600DAFFDF30E832E832070B976F010E986F5C
:10144600972B28EF0AF0D8909837972F26EF0AF0B7
:101456006BC0D9FF6CC0DAFFDF50070B0001996F34
:101466009951020D310EF324D96E000EF420DA6E76
:10147600DECF9AF0DDCF9BF09AC0D9FF9BC0DAFF92
:101486009851DF125CEF0AF06D50976F986B985188
:10149600000AD8B451EF0AF0E2EF09F09751000ABA
:1014A600D8B4E6EF09F0010AD8B418EF0AF0E2EF73
:1014B60009F09D5112005A505B10D8B465EF0AF03E
:1014C60067EF0AF087EF0AF05AC0D9FF5BC0DAFF70
:1014D600DF50070B5C6E050E5C6074EF0AF076EF6A
:1014E6000AF087EF0AF05AC0D9FF5BC0DAFFDF3097
:1014F600E832E832070B5C6E070E5C6485EF0AF093
:1015060087EF0AF089EF0AF0B5EF0AF05AC0D9FF63
:101516005BC0DAFFDF30E832E832070B5C6E010EA3
:101526005D6E5C2A99EF0AF0D8905D365C2E97EFD7
:101536000AF05AC0D9FF5BC0DAFFDF50070B5E6EB8
:101546005E50020D310EF324D96E000EF420DA6ED1
:10155600DECF5FF0DDCF60F05FC0D9FF60C0DAFF9D
:101566005D50DF1A1200010E6D6E00019751981141
:10157600D8A4C0EF0AF0C2EF0AF0C6EF0AF0000ED8
:101586006D6E0BEF0BF0B19020EE05F09751D9265A
:101596009851DA22DF50030B996F993BB150991994
:1015A600CF0B9919B16E97C06BF098C06CF0C1EC77
:1015B6000BF0000120EE03F09751D9269851DA225C
:1015C600DECF99F0DDCF9AF09AC099F09A6B9951D7
:1015D600B36E20EE03F09751D9269851DA22DF50E8
:1015E600B26E20EE03F09751D9269851DA22DECF5B
:1015F60001F0DDCF02F0A082A19297C0D9FF98C07A
:10160600DAFFDECF03F0DDCF04F0F28EF28CB1808C
:101616006D501200010E0001A16F9E519F11D8A4BA
:1016260017EF0BF019EF0BF01DEF0BF0000EA16F8B
:101636005AEF0BF028C0A2F09EC0D9FF9FC0DAFF78
:10164600DF500F0BA06FA251A019F80BA019A26FC3
:101656009EC0D9FF9FC0DAFFDF38070BA06FA047F7
:10166600A047A047A251A019C70BA019A26FA29D1F
:101676009EC0D9FF9FC0DAFFDFAE02D0A28F02D094
:101686000001A29FA20E6B6E000E6C6E02EC09F0BA
:10169600A20E6B6E000E6C6E9EC0D9FF9FC0DAFF65
:1016A6000001000EDFBE010E6D6EB6EC09F0000102
:1016B600A151120061506210D8A464EF0BF066EFDE
:1016C6000BF068EF0BF095EF0BF025C064F061C0EE
:1016D600D9FF62C0DAFFDF500F0B636E64506318E8
:1016E600F80B6318646E61C0D9FF62C0DAFFDF3899
:1016F600070B636E63466346634664506318C70B05
:101706006318646E649C61C0D9FF62C0DAFFDFAE05
:1017160002D0648E01D0649E640E5A6E000E5B6E1B
:101726005EEC0AF012007A0EF66E190EF76E000ED7
:10173600F86E00EE80F010EE17F00900F5CFEEFF20
:10174600E550E150FAE1CE0EF66E180EF76E000E79
:10175600F86E00EE31F010EE29F00900F5CFEEFF3D
:10176600E550E150FAE100EE01F0300EEE6AE806CF
:10177600FDE16E906E920001A2EF0CF020EE05F0F6
:101786006B50D9266C50DA22DFB4CCEF0BF0CEEFDB
:101796000BF0D1EF0BF0B192E3EF0BF0B18220EE3C
:1017A60005F06B50D9266C50DA22DFB6DDEF0BF070
:1017B600DFEF0BF0E2EF0BF0B194E3EF0BF0B18447
:1017C6001200A1920250B36E01C0B2FF0350041082
:1017D600D8B4F0EF0BF0F2EF0BF0FEEF0BF002D8FF
:1017E600FEEF0BF00500FA6E0350FD6E0450FE6E20
:1017F600FF6AFA50120012009E900A50CF6E09C07E
:10180600CEFF0B500C10D8B40BEF0CF00DEF0CF014
:1018160019EF0CF002D819EF0CF00500FA6E0B5018
:10182600FD6E0C50FE6EFF6AFA5012001200F29422
:101836001050D76E0FC0D6FF0D500E10D8B426EF3D
:101846000CF028EF0CF034EF0CF002D834EF0CF06B
:101856000500FA6E0D50FD6E0E50FE6EFF6AFA50D0
:1018660012001200590E00019E6F000E9F6F0DECC4
:101876000BF0506E580E00019E6F000E9F6F0DEC20
:101886000BF0506E570E00019E6F000E9F6F0DEC11
:101896000BF0506E12009E9221C0CCFF075008102C
:1018A600D8B458EF0CF05AEF0CF066EF0CF002D8F3
:1018B60066EF0CF00500FA6E0750FD6E0850FE6EDE
:1018C600FF6AFA5012001200890F8A0F8B0F8C0FD5
:1018D6008D0F920F930F940F950F960F601900DCE2
:1018E6000B381E19000FF901F81800DC0B13221231
:0118F60002EF
:1018F800590E616E000E626E5DEC0BF0580E616E53
:10190800000E626E5DEC0BF0570E616E000E626E9B
:101918005DEC0BF01200590E616E000E626E5DEC0C
:101928000BF0580E616E000E626E5DEC0BF0570EF8
:10193800616E000E626E5DEC0BF0120035EC0CF07F
:10194800510E0001976F000E986FB6EC0AF0506EBA
:10195800ACEF0CF007EF00F0580E616E000E626EEF
:101968005DEC0BF0570E616E000E626E5DEC0BF0D5
:101978001200800F810F820F830F840F92190003CA
:09198800DC0B0A00000000000B5A
:10199200054A062A1200F2901200F2901200F2900A
:1019A2001200F2901200F0921200F0901200F292E5
:0619B20012009E9C1200D1
:020000040020DA
:08000000FFFFFFFFFFFFFFFF00
:020000040030CA
:0E000000FF071F1FFF8185FF0FC00FE00F409D
:00000001FF
