:0400000052EF7CF04F
:10F7FB00800F810F820F830F840F890F8A0F8B0F5E
:10F80B008C0F8D0F920F930F940F950F960F010185
:10F81B0001520100011202270E316E000E326EEC06
:10F82B00EC7CF0C80E00D0E82EFDD7270E316E0011
:10F83B000E326EB1EC7CF0C80E00D0E82EFDD71264
:10F84B000031503210D8A42DEF7CF02FEF7CF03329
:10F85B00EF7CF0000E336E3AEF7CF031C028F032C3
:10F86B00C029F04FEC7FF0336E33501200270E316E
:10F87B006E000E326E27EC7DF0216E260E316E007F
:10F88B000E326E27EC7DF0216E220E316E000E32A1
:10F89B006E26EC7CF0216E1200FB0EF66EF70EF767
:10F8AB006E000EF86E00EE01F010EE27F00900F579
:10F8BB00CFEEFFE550E150FAE100EE39F0070EEE26
:10F8CB006AE806FDE1000EF86E000139EF7EF000EC
:10F8DB000E356E000E356E270E316E000E326EEC4D
:10F8EB00EC7CF0C80E00D0E82EFDD7270E316E0051
:10F8FB000E326EB1EC7CF0C80E00D0E82EFDD73581
:10F90B002A010E35648CEF7CF08EEF7CF071EF7C6E
:10F91B00F01200000E356E000E356E270E316E00A4
:10F92B000E326EECEC7CF0C80E00D0E82EFDD72723
:10F93B000E316E000E326EB1EC7CF0C80E00D0E8CA
:10F94B002EFDD7352A020E3564AEEF7CF0B0EF7C7E
:10F95B00F093EF7CF0120031503210D8A4B8EF7C4A
:10F96B00F0BAEF7CF0BCEF7CF0EBEF7CF03DC034F9
:10F97B00F031C0D9FF32C0DAFFDF500F0B336E34DA
:10F98B00503318F80B3318346E31C0D9FF32C0DA4C
:10F99B00FFDF38070B336E33463346334634503371
:10F9AB0018C70B3318346E349C31C0D9FF32C0DA10
:10F9BB00FFDFAE02D0348E01D0349E340E286E00A1
:10F9CB000E296E000E2A6EAFEC7EF0120031503213
:10F9DB0010D8A4F3EF7CF0F5EF7CF0F7EF7CF0267A
:10F9EB00EF7DF03EC034F031C0D9FF32C0DAFFDF1B
:10F9FB00500F0B336E34503318F80B3318346E3101
:10FA0B00C0D9FF32C0DAFFDF38070B336E33463312
:10FA1B0046334634503318C70B3318346E349C318D
:10FA2B00C0D9FF32C0DAFFDFAE02D0348E01D03442
:10FA3B009E340E286E000E296E010E2A6EAFEC7EE0
:10FA4B00F01200010E346E31503210D8A430EF7D1D
:10FA5B00F032EF7DF036EF7DF0000E346E71EF7DFE
:10FA6B00F03FC035F031C0D9FF32C0DAFFDF500FA5
:10FA7B000B336E35503318F80B3318356E31C0D944
:10FA8B00FF32C0DAFFDF38070B336E3346334633B2
:10FA9B004635503318C70B3318356E359C31C0D9EA
:10FAAB00FF32C0DAFFDFAE02D0358E01D0359E3586
:10FABB000E286E000E296E4FEC7FF0350E286E006F
:10FACB000E296E31C0D9FF32C0DAFF000EDFBE0146
:10FADB000E2A6EAFEC7EF034501200000E366E31F3
:10FAEB00503210D8B47CEF7DF07EEF7DF087EF7D48
:10FAFB00F033503410D8A485EF7DF087EF7DF0897B
:10FB0B00EF7DF0D1EF7DF031C028F032C029F03617
:10FB1B000E2A6E000E2B6ED3EC7DF020EE02F03130
:10FB2B0050D9263250DA22DF50D8A49FEF7DF0A1B6
:10FB3B00EF7DF0B9EF7DF03604D8A4A7EF7DF0A9E7
:10FB4B00EF7DF0B1EF7DF033C0D9FF34C0DAFF00A9
:10FB5B000EDF6ED1EF7DF033C0D9FF34C0DAFF0179
:10FB6B000EDF6ED1EF7DF020EE02F03150D9263250
:10FB7B0050DA22DE04D8A4C5EF7DF0C7EF7DF0D1BB
:10FB8B00EF7DF03604D8A4CDEF7DF0CFEF7DF0A95B
:10FB9B00EF7DF0B1EF7DF0000E120028502910D848
:10FBAB00B4DAEF7DF0DCEF7DF005EF7EF02A502B21
:10FBBB0010D8B4E3EF7DF0E5EF7DF005EF7EF02894
:10FBCB00C0D9FF29C0DAFFDF50070B2C6E050E2CB6
:10FBDB0060F2EF7DF0F4EF7DF005EF7EF028C0D9F9
:10FBEB00FF29C0DAFFDF30E832E832070B2C6E0753
:10FBFB000E2C6403EF7EF005EF7EF007EF7EF038FE
:10FC0B00EF7EF028C0D9FF29C0DAFFDF30E832E8F9
:10FC1B0032070B2C6E28C0D9FF29C0DAFFDF500743
:10FC2B000B2D6E2D50020D010EF324D96E000EF428
:10FC3B0020DA6EDECF2EF0DDCF2FF02EC0D9FF2FC6
:10FC4B00C0DAFFDF50306E2C2A2EEF7EF0D89030CA
:10FC5B00322C2E2CEF7EF03050010B2AC0D9FF2B0B
:10FC6B00C0DAFFDF6E12003CEC7CF0220E316E002E
:10FC7B000E326E250E336E000E346E73EC7DF0215A
:10FC8B006E2550D8A44CEF7EF04EEF7EF05FEF7EEA
:10FC9B00F0394A3A2AF50E395C010E3A58D8A05978
:10FCAB00EF7EF05BEF7EF065EF7EF0000E206E6571
:10FCBB00EF7EF0000E3A6E000E396E010E206E1FB5
:10FCCB00502018D8B46CEF7EF06EEF7EF03BEF7ED9
:10FCDB00F020C01FF02050D8A476EF7EF078EF7E96
:10FCEB00F03BEF7EF0030E3B18D8A47FEF7EF08144
:10FCFB00EF7EF083EF7EF0000E3B6E3B2A92EF7EA1
:10FD0B00F011EC7CF03BEF7EF06DEC7CF03BEF7E8A
:10FD1B00F08FEC7CF03BEF7EF03B50376E386A385F
:10FD2B0050000AD8B49CEF7EF0ABEF7EF037500159
:10FD3B000AD8B486EF7EF0030AD8B48AEF7EF001BE
:10FD4B000AD8B48EEF7EF0ABEF7EF03BEF7EF00087
:10FD5B00EF00F028502910D8B4B6EF7EF0B8EF7E44
:10FD6B00F0D8EF7EF028C0D9FF29C0DAFFDF5007AB
:10FD7B000B2B6E050E2B60C5EF7EF0C7EF7EF0D818
:10FD8B00EF7EF028C0D9FF29C0DAFFDF30E832E878
:10FD9B0032070B2B6E070E2B64D6EF7EF0D8EF7E5F
:10FDAB00F039EF7FF04EEF7FF028C0D9FF29C0DA92
:10FDBB00FFDF30E832E832070B2B6E010E2C6E2B77
:10FDCB002AEAEF7EF0D8902C362B2EE8EF7EF02C23
:10FDDB0050FF0A2D6E28C0D9FF29C0DAFFDF50076C
:10FDEB000B2E6E2E50020D0B0EF324D96E000EF45B
:10FDFB0020DA6EDECF2FF0DDCF30F02FC0D9FF3001
:10FE0B00C0DAFF2D50DF164EEF7FF028C0D9FF2947
:10FE1B00C0DAFFDF30E832E832070B2B6E010E2C15
:10FE2B006E2B2A1BEF7FF0D8902C362B2E19EF7FE1
:10FE3B00F028C0D9FF29C0DAFFDF50070B2D6E2D3C
:10FE4B0050020D0B0EF324D96E000EF420DA6EDE89
:10FE5B00CF2EF0DDCF2FF02EC0D9FF2FC0DAFF2C25
:10FE6B0050DF124EEF7FF02A502B6E2C6A2C500075
:10FE7B000AD8B443EF7FF0D8EF7EF02B50000AD8AE
:10FE8B00B4DAEF7EF0010AD8B40BEF7FF0D8EF7E37
:10FE9B00F01200010E306E28502910D8B458EF7FA5
:10FEAB00F05AEF7FF07AEF7FF028C0D9FF29C0DA44
:10FEBB00FFDF50070B2A6E050E2A6067EF7FF06994
:10FECB00EF7FF07AEF7FF028C0D9FF29C0DAFFDF90
:10FEDB0030E832E832070B2A6E070E2A6478EF7F80
:10FEEB00F07AEF7FF0DDEF7FF0000E306EFEEF7FEC
:10FEFB00F028C0D9FF29C0DAFFDF30E832E832073B
:10FF0B000B2A6E010E2B6E2A2A8EEF7FF0D8902BC8
:10FF1B00362A2E8CEF7FF02B50FF0A2C6E28C0D97F
:10FF2B00FF29C0DAFFDF50070B2D6E2D50020D1588
:10FF3B000EF324D96E000EF420DA6EDECF2EF0DD38
:10FF4B00CF2FF02EC0D9FF2FC0DAFF2C50DF16FEBB
:10FF5B00EF7FF028C0D9FF29C0DAFFDF30E832E8A5
:10FF6B0032070B2A6E010E2B6E2A2ABFEF7FF0D8B9
:10FF7B00902B362A2EBDEF7FF028C0D9FF29C0DA8F
:10FF8B00FFDF50070B2C6E2C50020D150EF324D9EE
:10FF9B006E000EF420DA6EDECF2DF0DDCF2EF02DBD
:10FFAB00C0D9FF2EC0DAFF2B50DF12FEEF7FF028F7
:10FFBB00C0D9FF29C0DAFFDFBCE6EF7FF0E9EF7FA6
:10FFCB00F0010EEAEF7FF0000E2A6E2B6A2B500029
:10FFDB000AD8B4F3EF7FF07AEF7FF02A50000AD8FB
:10FFEB00B47EEF7FF0010AD8B4AFEF7FF07AEF7FEA
:05FFFB00F0305012007F
:020000040020DA
:08000000FFFFFFFFFFFFFFFF00
:020000040030CA
:0E000000FF02091EFF8381FF0FC00FE00F40BB
:00000001FF
