:040000008EEF7DF012
:10FADC00210E2B6E000E2C6E63EC7EF01F6E200E32
:0EFAEC002B6E000E2C6E63EC7EF01F6E12006F
:10FAFB00800F810F820F830F840F890F8A0F8B0F5B
:10FB0B008C0F8D0F920F930F940F950F960F011271
:10FB1B0002FB0EF66EFA0EF76E000EF86E00EE019B
:10FB2B00F010EE21F00900F5CFEEFFE550E150FAB1
:10FB3B00E100EE32F0070EEE6AE806FDE1000EF88A
:10FB4B006E0001A9EF7DF06EEC7DF0210E2B6E00A7
:10FB5B000E2C6E23EC7EF01F6E1A0E316E5E0E3085
:10FB6B006E6E0EE82EFED7302EFCD7312EFAD70054
:10FB7B00D0210E2B6E000E2C6EE3EC7DF01F6E2051
:10FB8B000E2B6E000E2C6E23EC7EF01F6E1A0E31B8
:10FB9B006E5E0E306E6E0EE82EFED7302EFCD73119
:10FBAB002EFAD700D0200E2B6E000E2C6EE3EC7DC0
:10FBBB00F01F6EABEF7DF000EF00F0010E2E6E2B01
:10FBCB00502C10D8A4ECEF7DF0EEEF7DF0F2EF7D32
:10FBDB00F0000E2E6E21EF7EF032C02FF02BC0D92D
:10FBEB00FF2CC0DAFFDF500F0B2D6E2F502D18F8A6
:10FBFB000B2D182F6E2BC0D9FF2CC0DAFFDF380767
:10FC0B000B2D6E2D462D462D462F502D18C70B2D27
:10FC1B00182F6E2F9C2BC0D9FF2CC0DAFFDFAE0242
:10FC2B00D02F8E01D02F9E2F0E226E000E236E0032
:10FC3B000E246EAFEC7EF02E501200010E2E6E2BAA
:10FC4B00502C10D8A42CEF7EF02EEF7EF032EF7EEE
:10FC5B00F0000E2E6E61EF7EF033C02FF02BC0D96B
:10FC6B00FF2CC0DAFFDF500F0B2D6E2F502D18F825
:10FC7B000B2D182F6E2BC0D9FF2CC0DAFFDF3807E6
:10FC8B000B2D6E2D462D462D462F502D18C70B2DA7
:10FC9B00182F6E2F9C2BC0D9FF2CC0DAFFDFAE02C2
:10FCAB00D02F8E01D02F9E2F0E226E000E236E01B1
:10FCBB000E246EAFEC7EF02E501200010E2E6E2B2A
:10FCCB00502C10D8A46CEF7EF06EEF7EF072EF7EAE
:10FCDB00F0000E2E6EADEF7EF034C02FF02BC0D99E
:10FCEB00FF2CC0DAFFDF500F0B2D6E2F502D18F8A5
:10FCFB000B2D182F6E2BC0D9FF2CC0DAFFDF380766
:10FD0B000B2D6E2D462D462D462F502D18C70B2D26
:10FD1B00182F6E2F9C2BC0D9FF2CC0DAFFDFAE0241
:10FD2B00D02F8E01D02F9E2F0E226E000E236E4FE2
:10FD3B00EC7FF02F0E226E000E236E2BC0D9FF2C02
:10FD4B00C0DAFF000EDFBE010E246EAFEC7EF02E8C
:10FD5B0050120022502310D8B4B6EF7EF0B8EF7ECD
:10FD6B00F0D8EF7EF022C0D9FF23C0DAFFDF5007B7
:10FD7B000B256E050E2560C5EF7EF0C7EF7EF0D824
:10FD8B00EF7EF022C0D9FF23C0DAFFDF30E832E884
:10FD9B0032070B256E070E2564D6EF7EF0D8EF7E6B
:10FDAB00F039EF7FF04EEF7FF022C0D9FF23C0DA9E
:10FDBB00FFDF30E832E832070B256E010E266E2589
:10FDCB002AEAEF7EF0D8902636252EE8EF7EF02635
:10FDDB0050FF0A276E22C0D9FF23C0DAFFDF50077E
:10FDEB000B286E2850020D0B0EF324D96E000EF467
:10FDFB0020DA6EDECF29F0DDCF2AF029C0D9FF2A19
:10FE0B00C0DAFF2750DF164EEF7FF022C0D9FF2359
:10FE1B00C0DAFFDF30E832E832070B256E010E2621
:10FE2B006E252A1BEF7FF0D8902636252E19EF7FF3
:10FE3B00F022C0D9FF23C0DAFFDF50070B276E2754
:10FE4B0050020D0B0EF324D96E000EF420DA6EDE89
:10FE5B00CF28F0DDCF29F028C0D9FF29C0DAFF2643
:10FE6B0050DF124EEF7FF02450256E266A2650008D
:10FE7B000AD8B443EF7FF0D8EF7EF02550000AD8B4
:10FE8B00B4DAEF7EF0010AD8B40BEF7FF0D8EF7E37
:10FE9B00F01200010E2A6E22502310D8B458EF7FB7
:10FEAB00F05AEF7FF07AEF7FF022C0D9FF23C0DA50
:10FEBB00FFDF50070B246E050E246067EF7FF069A0
:10FECB00EF7FF07AEF7FF022C0D9FF23C0DAFFDF9C
:10FEDB0030E832E832070B246E070E246478EF7F8C
:10FEEB00F07AEF7FF0DDEF7FF0000E2A6EFEEF7FF2
:10FEFB00F022C0D9FF23C0DAFFDF30E832E8320747
:10FF0B000B246E010E256E242A8EEF7FF0D89025E0
:10FF1B0036242E8CEF7FF02550FF0A266E22C0D997
:10FF2B00FF23C0DAFFDF50070B276E2750020D159A
:10FF3B000EF324D96E000EF420DA6EDECF28F0DD3E
:10FF4B00CF29F028C0D9FF29C0DAFF2650DF16FED3
:10FF5B00EF7FF022C0D9FF23C0DAFFDF30E832E8B1
:10FF6B0032070B246E010E256E242ABFEF7FF0D8CB
:10FF7B00902536242EBDEF7FF022C0D9FF23C0DAA7
:10FF8B00FFDF50070B266E2650020D150EF324D9FA
:10FF9B006E000EF420DA6EDECF27F0DDCF28F027CF
:10FFAB00C0D9FF28C0DAFF2550DF12FEEF7FF02209
:10FFBB00C0D9FF23C0DAFFDFBCE6EF7FF0E9EF7FAC
:10FFCB00F0010EEAEF7FF0000E246E256A2550003B
:10FFDB000AD8B4F3EF7FF07AEF7FF02450000AD801
:10FFEB00B47EEF7FF0010AD8B4AFEF7FF07AEF7FEA
:05FFFB00F02A50120085
:020000040020DA
:08000000FFFFFFFFFFFFFFFF00
:020000040030CA
:0E000000FF02091EFF8381FF0FC00FE00F40BB
:00000001FF
