:0400000080EF7CF021
:10F8D800800F810F820F830F840F890F8A0F8B0F80
:10F8E8008C0F8D0F920F930F940F950F960F013A6F
:10F8F800C3322A221A120A02D80EF66EF80EF76ED2
:10F90800000EF86E00EE01F010EE28F00900F5CFB9
:10F91800EEFFE550E150FAE1356A346A000EF86E00
:10F92800000100EF7FF0210E296E000E2A6E4FECC9
:10F938007EF01F6E280E296E000E2A6E4FEC7EF0A8
:10F948001F6E270E296E000E2A6E4FEC7EF01F6E7A
:10F95800260E296E000E2A6E4FEC7EF01F6E250EC5
:10F96800296E000E2A6E4FEC7EF01F6E240E296E53
:10F97800000E2A6E4FEC7EF01F6E230E296E000ECD
:10F988002A6E4FEC7EF01F6E220E296E000E2A6E34
:10F998004FEC7EF01F6E1200010E336E29502A10B4
:10F9A800D8B4D9EF7CF0DBEF7CF004EF7DF02B507E
:10F9B8002C10D8B4E2EF7CF0E4EF7CF004EF7DF09B
:10F9C80029C0D9FF2AC0DAFFDF50070B2D6E050EBC
:10F9D8002D60F1EF7CF0F3EF7CF004EF7DF029C0AF
:10F9E800D9FF2AC0DAFFDF30E832E832070B2D6E84
:10F9F800070E2D6402EF7DF004EF7DF008EF7DF037
:10FA0800000E336E3BEF7DF029C0D9FF2AC0DAFF24
:10FA1800DF50070B2D6E2D50020D150EF324D96EF5
:10FA2800000EF420DA6EDECF2EF0DDCF2FF02EC0E0
:10FA3800D9FF2FC0DAFFDF50306E29C0D9FF2AC0A6
:10FA4800DAFFDF30E832E832070B316E010E326E32
:10FA5800312A31EF7DF0D8903236312E2FEF7DF0FC
:10FA6800325030142BC0D9FF2CC0DAFFDF6E335070
:10FA78001200010E336E29502A10D8B446EF7DF0DB
:10FA880048EF7DF071EF7DF02B502C10D8B44FEF7C
:10FA98007DF051EF7DF071EF7DF029C0D9FF2AC0CC
:10FAA800DAFFDF50070B2D6E050E2D605EEF7DF03F
:10FAB80060EF7DF071EF7DF029C0D9FF2AC0DAFF31
:10FAC800DF30E832E832070B2D6E070E2D646FEF3A
:10FAD8007DF071EF7DF075EF7DF0000E336EA8EFCD
:10FAE8007DF029C0D9FF2AC0DAFFDF50070B2D6E41
:10FAF8002D50020D010EF324D96E000EF420DA6E9B
:10FB0800DECF2EF0DDCF2FF02EC0D9FF2FC0DAFFC9
:10FB1800DF50306E29C0D9FF2AC0DAFFDF30E83263
:10FB2800E832070B316E010E326E312A9EEF7DF0FE
:10FB3800D8903236312E9CEF7DF0325030142BC0E5
:10FB4800D9FF2CC0DAFFDF6E33501200010E326E7F
:10FB580029502A10D8B4B3EF7DF0B5EF7DF0D5EF7A
:10FB68007DF029C0D9FF2AC0DAFFDF50070B2C6EC1
:10FB7800050E2C60C2EF7DF0C4EF7DF0D5EF7DF06F
:10FB880029C0D9FF2AC0DAFFDF30E832E832070B94
:10FB98002C6E070E2C64D3EF7DF0D5EF7DF038EF97
:10FBA8007EF0000E326E4DEF7EF029C0D9FF2AC0DC
:10FBB800DAFFDF30E832E832070B2C6E010E2D6ECB
:10FBC8002C2AE9EF7DF0D8902D362C2EE7EF7DF02A
:10FBD8002D50FF0A2E6E29C0D9FF2AC0DAFFDF5048
:10FBE800070B2F6E2F50020D0B0EF324D96E000E4B
:10FBF800F420DA6EDECF30F0DDCF31F030C0D9FF3F
:10FC080031C0DAFF2E50DF164DEF7EF029C0D9FF44
:10FC18002AC0DAFFDF30E832E832070B2C6E010E1B
:10FC28002D6E2C2A1AEF7EF0D8902D362C2E18EF38
:10FC38007EF029C0D9FF2AC0DAFFDF50070B2E6EED
:10FC48002E50020D0B0EF324D96E000EF420DA6E3E
:10FC5800DECF2FF0DDCF30F02FC0D9FF30C0DAFF74
:10FC68002D50DF124DEF7EF02B502C6E2D6A2D504B
:10FC7800000AD8B442EF7EF0D5EF7DF02C50000A90
:10FC8800D8B4D9EF7DF0010AD8B40AEF7EF0D5EFE9
:10FC98007DF032501200010E316E29502A10D8B46E
:10FCA80058EF7EF05AEF7EF07AEF7EF029C0D9FF48
:10FCB8002AC0DAFFDF50070B2B6E050E2B6067EFAB
:10FCC8007EF069EF7EF07AEF7EF029C0D9FF2AC076
:10FCD800DAFFDF30E832E832070B2B6E070E2B64B1
:10FCE80078EF7EF07AEF7EF0DDEF7EF0000E316E79
:10FCF800FEEF7EF029C0D9FF2AC0DAFFDF30E832F4
:10FD0800E832070B2B6E010E2C6E2B2A8EEF7EF03D
:10FD1800D8902C362B2E8CEF7EF02C50FF0A2D6EAF
:10FD280029C0D9FF2AC0DAFFDF50070B2E6E2E50EC
:10FD3800020D150EF324D96E000EF420DA6EDECF14
:10FD48002FF0DDCF30F02FC0D9FF30C0DAFF2D50B3
:10FD5800DF16FEEF7EF029C0D9FF2AC0DAFFDF30B8
:10FD6800E832E832070B2B6E010E2C6E2B2ABFEF00
:10FD78007EF0D8902C362B2EBDEF7EF029C0D9FF0F
:10FD88002AC0DAFFDF50070B2D6E2D50020D150E1D
:10FD9800F324D96E000EF420DA6EDECF2EF0DDCF1C
:10FDA8002FF02EC0D9FF2FC0DAFF2C50DF12FEEF44
:10FDB8007EF029C0D9FF2AC0DAFFDFBCE6EF7EF06B
:10FDC800E9EF7EF0010EEAEF7EF0000E2B6E2C6A52
:10FDD8002C50000AD8B4F3EF7EF07AEF7EF02B5067
:10FDE800000AD8B47EEF7EF0010AD8B4AFEF7EF0F7
:10FDF8007AEF7EF03150120097EC7CF0280E296ED5
:10FE0800000E2A6E350E2B6E000E2C6ED0EC7CF098
:10FE18001F6E210E296E000E2A6E350E2B6E000EF7
:10FE28002C6ED0EC7CF01F6E210E296E000E2A6E0F
:10FE3800340E2B6E000E2C6E3DEC7DF01F6E200EE6
:10FE4800296E000E2A6E4FEC7EF01F6E3404D8A483
:10FE580030EF7FF032EF7FF03DEF7FF0200E296E1C
:10FE6800000E2A6E010E2B6EAAEC7DF01F6E46EF77
:10FE78007FF0200E296E000E2A6E000E2B6EAAEC63
:10FE88007DF01F6E280E296E000E2A6E010E2B6E55
:10FE9800AAEC7DF01F6EC80E00D0E82EFDD7270E05
:10FEA800296E000E2A6E010E2B6EAAEC7DF01F6ED5
:10FEB800C80E00D0E82EFDD7260E296E000E2A6E39
:10FEC800010E2B6EAAEC7DF01F6EC80E00D0E82E36
:10FED800FDD7250E296E000E2A6E010E2B6EAAEC98
:10FEE8007DF01F6EC80E00D0E82EFDD7240E296EB7
:10FEF800000E2A6E010E2B6EAAEC7DF01F6EC80E46
:10FF080000D0E82EFDD7230E296E000E2A6E010EB2
:10FF18002B6EAAEC7DF01F6EC80E00D0E82EFDD720
:10FF2800220E296E000E2A6E010E2B6EAAEC7DF0B1
:10FF38001F6EC80E00D0E82EFDD7280E296E000EC1
:10FF48002A6E000E2B6EAAEC7DF01F6EC80E00D034
:10FF5800E82EFDD7270E296E000E2A6E000E2B6E96
:10FF6800AAEC7DF01F6EC80E00D0E82EFDD7260E35
:10FF7800296E000E2A6E000E2B6EAAEC7DF01F6E05
:10FF8800C80E00D0E82EFDD7250E296E000E2A6E69
:10FF9800000E2B6EAAEC7DF01F6EC80E00D0E82E66
:10FFA800FDD7240E296E000E2A6E000E2B6EAAECC9
:10FFB8007DF01F6EC80E00D0E82EFDD7230E296EE7
:10FFC800000E2A6E000E2B6EAAEC7DF01F6EC80E76
:10FFD80000D0E82EFDD7220E296E000E2A6E000EE4
:10FFE8002B6EAAEC7DF01F6EC80E00D0E82EFDD750
:08FFF80018EF7FF000EF00F0AC
:020000040020DA
:08000000FFFFFFFFFFFFFFFF00
:020000040030CA
:0E000000FF02091EFF8381FF0FC00FE00F40BB
:00000001FF
